{"abi":[{"type":"receive","stateMutability":"payable"},{"type":"function","name":"REWARD_AMOUNT","inputs":[],"outputs":[{"name":"","type":"uint256","internalType":"uint256"}],"stateMutability":"view"},{"type":"function","name":"initialize","inputs":[{"name":"plonkVerifierAddress","type":"address","internalType":"address"}],"outputs":[],"stateMutability":"payable"},{"type":"function","name":"s_addressToProofHash","inputs":[{"name":"","type":"address","internalType":"address"}],"outputs":[{"name":"","type":"bytes32","internalType":"bytes32"}],"stateMutability":"view"},{"type":"function","name":"s_claimIdCounter","inputs":[],"outputs":[{"name":"","type":"uint256","internalType":"uint256"}],"stateMutability":"view"},{"type":"function","name":"s_claimIdToSubmitter","inputs":[{"name":"","type":"uint256","internalType":"uint256"}],"outputs":[{"name":"","type":"address","internalType":"address"}],"stateMutability":"view"},{"type":"function","name":"s_plonkVerifierAddress","inputs":[],"outputs":[{"name":"","type":"address","internalType":"address"}],"stateMutability":"view"},{"type":"function","name":"s_rewardsEarned","inputs":[{"name":"","type":"address","internalType":"address"}],"outputs":[{"name":"","type":"uint256","internalType":"uint256"}],"stateMutability":"view"},{"type":"function","name":"submitProof","inputs":[{"name":"_proof","type":"uint256[24]","internalType":"uint256[24]"},{"name":"_pubSignals","type":"uint256[1]","internalType":"uint256[1]"}],"outputs":[{"name":"","type":"bool","internalType":"bool"}],"stateMutability":"nonpayable"},{"type":"event","name":"ClaimRegistered","inputs":[{"name":"claimId","type":"uint256","indexed":false,"internalType":"uint256"},{"name":"submitter","type":"address","indexed":false,"internalType":"address"},{"name":"proofHash","type":"bytes32","indexed":false,"internalType":"bytes32"}],"anonymous":false},{"type":"event","name":"Initialized","inputs":[{"name":"plonkVerifierAddress","type":"address","indexed":false,"internalType":"address"}],"anonymous":false},{"type":"event","name":"ProofResult","inputs":[{"name":"result","type":"bool","indexed":false,"internalType":"bool"}],"anonymous":false},{"type":"event","name":"RewardPaid","inputs":[{"name":"recipient","type":"address","indexed":false,"internalType":"address"},{"name":"amount","type":"uint256","indexed":false,"internalType":"uint256"},{"name":"claimId","type":"uint256","indexed":false,"internalType":"uint256"}],"anonymous":false}],"bytecode":{"object":"0x60a060405264e8d4a51000608052348015601857600080fd5b50608051610817610050600039600081816101d3015281816103de01528181610453015281816104cb015261057a01526108176000f3fe60806040526004361061007f5760003560e01c806367292af51161004e57806367292af514610149578063c4d66de81461017f578063ced59eaf14610194578063cf849442146101c157600080fd5b80633612e0921461008b57806339c0b38e146100cb57806344896a9a146100e15780636641be151461011957600080fd5b3661008657005b600080fd5b34801561009757600080fd5b506100b86100a63660046106d4565b60046020526000908152604090205481565b6040519081526020015b60405180910390f35b3480156100d757600080fd5b506100b860015481565b3480156100ed57600080fd5b50600054610101906001600160a01b031681565b6040516001600160a01b0390911681526020016100c2565b34801561012557600080fd5b50610139610134366004610704565b6101f5565b60405190151581526020016100c2565b34801561015557600080fd5b50610101610164366004610749565b6002602052600090815260409020546001600160a01b031681565b61019261018d3660046106d4565b6105e9565b005b3480156101a057600080fd5b506100b86101af3660046106d4565b60036020526000908152604090205481565b3480156101cd57600080fd5b506100b87f000000000000000000000000000000000000000000000000000000000000000081565b60008054600160a01b900460ff16156102465760405162461bcd60e51b815260206004820152600e60248201526d1499595b9d1c985b9d0818d85b1b60921b60448201526064015b60405180910390fd5b6000805460ff60a01b1916600160a01b17815561026384846106a0565b336000908152600460205260409020549091508190036102d15760405162461bcd60e51b8152602060048201526024808201527f50726f6f6620616c7265616479207375626d69747465642062792074686973206044820152633ab9b2b960e11b606482015260840161023d565b600080546040516001628dbf5960e01b031981526001600160a01b039091169063ff7240a7906103079088908890600401610762565b602060405180830381865afa158015610324573d6000803e3d6000fd5b505050506040513d601f19601f82011682018060405250810190610348919061077d565b90507fb6030296ed6d28f593d0c257c080ef243cd60eb419e82d45d9e530c5939151028160405161037d911515815260200190565b60405180910390a180156105d457600180546000918261039c836107b5565b90915550600081815260026020908152604080832080546001600160a01b031916339081179091558352600482528083208790556003909152812080549293507f00000000000000000000000000000000000000000000000000000000000000009290919061040c9084906107ce565b9091555050604080518281523360208201529081018490527f7dcd2f3671800901cfd3f0bf680a4224b1eb3ab1610e6c9d4fc34df0a9406d1d9060600160405180910390a17f00000000000000000000000000000000000000000000000000000000000000004710156104c15760405162461bcd60e51b815260206004820152601d60248201527f496e73756666696369656e7420636f6e74726163742062616c616e6365000000604482015260640161023d565b60405160009033907f0000000000000000000000000000000000000000000000000000000000000000908381818185875af1925050503d8060008114610523576040519150601f19603f3d011682016040523d82523d6000602084013e610528565b606091505b50509050806105715760405162461bcd60e51b815260206004820152601560248201527411985a5b1959081d1bc81cd95b99081c995dd85c99605a1b604482015260640161023d565b604080513381527f000000000000000000000000000000000000000000000000000000000000000060208201529081018390527fd6f2c8500df5b44f11e9e48b91ff9f1b9d81bc496d55570c2b1b75bf65243f519060600160405180910390a150505b6000805460ff60a01b19169055949350505050565b600054600160a81b900460ff16156106395760405162461bcd60e51b8152602060048201526013602482015272105b1c9958591e481a5b9a5d1a585b1a5e9959606a1b604482015260640161023d565b600080546001600160a01b0319166001600160a01b0383169081179091556040519081527f908408e307fc569b417f6cbec5d5a06f44a0a505ac0479b47d421a4b2fd6a1e69060200160405180910390a1506000805460ff60a81b1916600160a81b179055565b600082826040516020016106b5929190610762565b6040516020818303038152906040528051906020012090505b92915050565b6000602082840312156106e657600080fd5b81356001600160a01b03811681146106fd57600080fd5b9392505050565b600080610320838503121561071857600080fd5b61030083018481111561072a57600080fd5b839250846103208501111561073e57600080fd5b809150509250929050565b60006020828403121561075b57600080fd5b5035919050565b61032081016103008483376020836103008401379392505050565b60006020828403121561078f57600080fd5b815180151581146106fd57600080fd5b634e487b7160e01b600052601160045260246000fd5b6000600182016107c7576107c761079f565b5060010190565b808201808211156106ce576106ce61079f56fea2646970667358221220d36106f0cdd1375ebf720d4d0897f5fe0e29a3194124371394bf7d29d3594ba264736f6c634300081b0033","linkReferences":{}},"methodIdentifiers":{"REWARD_AMOUNT()":"cf849442","initialize(address)":"c4d66de8","s_addressToProofHash(address)":"3612e092","s_claimIdCounter()":"39c0b38e","s_claimIdToSubmitter(uint256)":"67292af5","s_plonkVerifierAddress()":"44896a9a","s_rewardsEarned(address)":"ced59eaf","submitProof(uint256[24],uint256[1])":"6641be15"},"id":16}