{"abi":[{"type":"constructor","inputs":[{"name":"plonkVerifierAddress","type":"address","internalType":"address"}],"stateMutability":"payable"},{"type":"receive","stateMutability":"payable"},{"type":"function","name":"REWARD_AMOUNT","inputs":[],"outputs":[{"name":"","type":"uint256","internalType":"uint256"}],"stateMutability":"view"},{"type":"function","name":"s_plonkVerifierAddress","inputs":[],"outputs":[{"name":"","type":"address","internalType":"address"}],"stateMutability":"view"},{"type":"function","name":"submitProof","inputs":[{"name":"proof","type":"bytes","internalType":"bytes"},{"name":"pubSignals","type":"uint256[]","internalType":"uint256[]"}],"outputs":[{"name":"","type":"bool","internalType":"bool"}],"stateMutability":"nonpayable"},{"type":"event","name":"ProofResult","inputs":[{"name":"result","type":"bool","indexed":false,"internalType":"bool"}],"anonymous":false},{"type":"event","name":"RewardPaid","inputs":[{"name":"recipient","type":"address","indexed":false,"internalType":"address"},{"name":"amount","type":"uint256","indexed":false,"internalType":"uint256"}],"anonymous":false}],"bytecode":{"object":"0x60a060405266038d7ea4c6800060809081525060405161066338038061066383398101604081905261003091610055565b600080546001600160a01b0319166001600160a01b0392909216919091179055610085565b60006020828403121561006757600080fd5b81516001600160a01b038116811461007e57600080fd5b9392505050565b6080516105af6100b46000396000818160c2015281816101ab0152818161022801526102d701526105af6000f3fe6080604052600436106100375760003560e01c8062c80d811461004357806344896a9a14610078578063cf849442146100b057600080fd5b3661003e57005b600080fd5b34801561004f57600080fd5b5061006361005e3660046103f9565b6100f2565b60405190151581526020015b60405180910390f35b34801561008457600080fd5b50600054610098906001600160a01b031681565b6040516001600160a01b03909116815260200161006f565b3480156100bc57600080fd5b506100e47f000000000000000000000000000000000000000000000000000000000000000081565b60405190815260200161006f565b60008054604051631e8e1e1360e01b815282916001600160a01b031690631e8e1e139061012590879087906004016104bf565b602060405180830381865afa158015610142573d6000803e3d6000fd5b505050506040513d601f19601f820116820180604052508101906101669190610557565b90507fb6030296ed6d28f593d0c257c080ef243cd60eb419e82d45d9e530c5939151028160405161019b911515815260200190565b60405180910390a18015610328577f000000000000000000000000000000000000000000000000000000000000000047101561021e5760405162461bcd60e51b815260206004820152601d60248201527f496e73756666696369656e7420636f6e74726163742062616c616e636500000060448201526064015b60405180910390fd5b60405160009033907f0000000000000000000000000000000000000000000000000000000000000000908381818185875af1925050503d8060008114610280576040519150601f19603f3d011682016040523d82523d6000602084013e610285565b606091505b50509050806102ce5760405162461bcd60e51b815260206004820152601560248201527411985a5b1959081d1bc81cd95b99081c995dd85c99605a1b6044820152606401610215565b604080513381527f000000000000000000000000000000000000000000000000000000000000000060208201527fe2403640ba68fed3a2f88b7557551d1993f84b99bb10ff833f0cf8db0c5e0486910160405180910390a1505b9392505050565b634e487b7160e01b600052604160045260246000fd5b604051601f8201601f1916810167ffffffffffffffff8111828210171561036e5761036e61032f565b604052919050565b600082601f83011261038757600080fd5b813567ffffffffffffffff8111156103a1576103a161032f565b8060051b6103b160208201610345565b918252602081850181019290810190868411156103cd57600080fd5b6020860192505b838310156103ef5782358252602092830192909101906103d4565b9695505050505050565b6000806040838503121561040c57600080fd5b823567ffffffffffffffff81111561042357600080fd5b8301601f8101851361043457600080fd5b803567ffffffffffffffff81111561044e5761044e61032f565b610461601f8201601f1916602001610345565b81815286602083850101111561047657600080fd5b81602084016020830137600060208383010152809450505050602083013567ffffffffffffffff8111156104a957600080fd5b6104b585828601610376565b9150509250929050565b604081526000835180604084015260005b818110156104ed57602081870181015160608684010152016104d0565b50600060608285010152601f19601f82011683019050606081016060848303016020850152808551808352608084019150602087019350600092505b8083101561054c5783518252602082019150602084019350600183019250610529565b509695505050505050565b60006020828403121561056957600080fd5b8151801515811461032857600080fdfea2646970667358221220607db06ce19c320af6b736c386a4d463a5676c34f91859a915717a97a95aa0a164736f6c634300081b0033","linkReferences":{}},"methodIdentifiers":{"REWARD_AMOUNT()":"cf849442","s_plonkVerifierAddress()":"44896a9a","submitProof(bytes,uint256[])":"00c80d81"},"id":16}