{"abi":[{"type":"constructor","inputs":[{"name":"plonkVerifierAddress","type":"address","internalType":"address"}],"stateMutability":"payable"},{"type":"receive","stateMutability":"payable"},{"type":"function","name":"REWARD_AMOUNT","inputs":[],"outputs":[{"name":"","type":"uint256","internalType":"uint256"}],"stateMutability":"view"},{"type":"function","name":"s_plonkVerifierAddress","inputs":[],"outputs":[{"name":"","type":"address","internalType":"address"}],"stateMutability":"view"},{"type":"function","name":"submitProof","inputs":[{"name":"_proof","type":"uint256[24]","internalType":"uint256[24]"},{"name":"_pubSignals","type":"uint256[1]","internalType":"uint256[1]"}],"outputs":[{"name":"","type":"bool","internalType":"bool"}],"stateMutability":"nonpayable"},{"type":"event","name":"ProofResult","inputs":[{"name":"result","type":"bool","indexed":false,"internalType":"bool"}],"anonymous":false},{"type":"event","name":"RewardPaid","inputs":[{"name":"recipient","type":"address","indexed":false,"internalType":"address"},{"name":"amount","type":"uint256","indexed":false,"internalType":"uint256"}],"anonymous":false}],"bytecode":{"object":"0x60a060405266038d7ea4c6800060809081525060405161049f38038061049f83398101604081905261003091610055565b600080546001600160a01b0319166001600160a01b0392909216919091179055610085565b60006020828403121561006757600080fd5b81516001600160a01b038116811461007e57600080fd5b9392505050565b6080516103eb6100b46000396000818160c3015281816101af0152818161022c01526102db01526103eb6000f3fe6080604052600436106100385760003560e01c806344896a9a146100445780636641be1514610081578063cf849442146100b157600080fd5b3661003f57005b600080fd5b34801561005057600080fd5b50600054610064906001600160a01b031681565b6040516001600160a01b0390911681526020015b60405180910390f35b34801561008d57600080fd5b506100a161009c366004610333565b6100f3565b6040519015158152602001610078565b3480156100bd57600080fd5b506100e57f000000000000000000000000000000000000000000000000000000000000000081565b604051908152602001610078565b600080546040516001628dbf5960e01b0319815282916001600160a01b03169063ff7240a7906101299087908790600401610378565b602060405180830381865afa158015610146573d6000803e3d6000fd5b505050506040513d601f19601f8201168201806040525081019061016a9190610393565b90507fb6030296ed6d28f593d0c257c080ef243cd60eb419e82d45d9e530c5939151028160405161019f911515815260200190565b60405180910390a1801561032c577f00000000000000000000000000000000000000000000000000000000000000004710156102225760405162461bcd60e51b815260206004820152601d60248201527f496e73756666696369656e7420636f6e74726163742062616c616e636500000060448201526064015b60405180910390fd5b60405160009033907f0000000000000000000000000000000000000000000000000000000000000000908381818185875af1925050503d8060008114610284576040519150601f19603f3d011682016040523d82523d6000602084013e610289565b606091505b50509050806102d25760405162461bcd60e51b815260206004820152601560248201527411985a5b1959081d1bc81cd95b99081c995dd85c99605a1b6044820152606401610219565b604080513381527f000000000000000000000000000000000000000000000000000000000000000060208201527fe2403640ba68fed3a2f88b7557551d1993f84b99bb10ff833f0cf8db0c5e0486910160405180910390a1505b9392505050565b600080610320838503121561034757600080fd5b61030083018481111561035957600080fd5b839250846103208501111561036d57600080fd5b809150509250929050565b61032081016103008483376020836103008401379392505050565b6000602082840312156103a557600080fd5b8151801515811461032c57600080fdfea26469706673582212201088798cb1a62663e90e600ee70284602c25918a74e57c39cbb1a7765896932e64736f6c634300081b0033","linkReferences":{}},"methodIdentifiers":{"REWARD_AMOUNT()":"cf849442","s_plonkVerifierAddress()":"44896a9a","submitProof(uint256[24],uint256[1])":"6641be15"},"id":16}